:100000000C9462000C948A000C948A000C948A0070
:100010000C948A000C948A000C948A000C948A0038
:100020000C948A000C948A000C948A000C948A0028
:100030000C948A000C948A000C948A000C948A0018
:100040000C945F020C948A000C94CF020C94A902C9
:100050000C948A000C948A000C948A000C948A00F8
:100060000C948A000C948A000000000023002600F3
:10007000290000000000240027002A0000000000E2
:10008000250028002B0004040404040404040202D4
:100090000202020203030303030301020408102007
:1000A0004080010204081020010204081020000012
:1000B0000008000201000003040700000000000027
:1000C0000000010311241FBECFEFD8E0DEBFCDBF7B
:1000D00011E0A0E0B1E0E8E0FBE002C005900D9285
:1000E000A833B107D9F721E0A8E3B1E001C01D9220
:1000F000AC3EB207E1F710E0C2E6D0E004C02197C1
:10010000FE010E947C05C136D107C9F70E94380361
:100110000C9482050C940000833081F028F4813027
:1001200099F08230A9F008958730A9F08830C9F09D
:100130008430B1F4809180008F7D03C08091800075
:100140008F7780938000089584B58F7784BD08955C
:1001500084B58F7DFBCF8091B0008F778093B00006
:1001600008958091B0008F7DF9CF1F93CF93DF93D7
:10017000282F30E0F901E255FF4F8491F901E6564E
:10018000FF4FD491F901EA57FF4FC491CC23A9F056
:10019000162F81110E948C00EC2FF0E0EE0FFF1F54
:1001A000E458FF4FA591B4918FB7F894EC911111D9
:1001B00008C0D095DE23DC938FBFDF91CF911F91D4
:1001C0000895DE2BF8CFCF93DF9390E0FC01E65645
:1001D000FF4F24918A579F4FFC0184918823D1F0CF
:1001E00090E0880F991FFC01EE58FF4FA591B49144
:1001F000FC01E458FF4FC591D49161110EC09FB727
:10020000F8948C91E22FE0958E238C932881E22341
:10021000E8839FBFDF91CF9108958FB7F894EC9159
:10022000E22BEC938FBFF6CF3FB7F8948091470154
:1002300090914801A0914901B0914A0126B5A89B2F
:1002400005C02F3F19F00196A11DB11D3FBFBA2F68
:10025000A92F982F8827BC01CD01620F711D811D28
:10026000911D42E0660F771F881F991F4A95D1F7AD
:1002700008952FB7F89460914301709144018091E3
:100280004501909146012FBF0895AF92BF92CF9242
:10029000DF92EF92FF920F931F93CF93DF936C0146
:1002A0007B018B01040F151FEB015E01AE18BF0827
:1002B000C017D10759F06991D601ED91FC910190D9
:1002C000F081E02DC6010995892B79F7C501DF91F1
:1002D000CF911F910F91FF90EF90DF90CF90BF9043
:1002E000AF900895FC01538D448D252F30E0842F6D
:1002F00090E0821B930B541710F0CF96089501974E
:100300000895FC01918D828D981761F0A28DAE0F3A
:10031000BF2FB11D5D968C91928D9F5F9F73928FC1
:1003200090E008958FEF9FEF0895FC01918D828DED
:10033000981731F0828DE80FF11D858D90E00895BA
:100340008FEF9FEF0895FC01918D228D892F90E012
:10035000805C9F4F821B91098F73992708958BE4CE
:1003600091E00E94A30121E0892B09F420E0822F73
:10037000089580E090E0892B29F00E94AF0181115F
:100380000C9400000895FC01A48DA80FB92FB11D95
:10039000A35ABF4F2C91848D90E001968F739927BB
:1003A000848FA689B7892C93A089B1898C91837099
:1003B00080648C93938D848D981306C00288F38992
:1003C000E02D80818F7D80830895EF92FF920F93BF
:1003D0001F93CF93DF93EC0181E0888F9B8D8C8DF1
:1003E00098131AC0E889F989808185FF15C09FB7E5
:1003F000F894EE89FF896083E889F98980818370A8
:10040000806480839FBF81E090E0DF91CF911F9156
:100410000F91FF90EF900895F62E0B8D10E00F5F77
:100420001F4F0F731127E02E8C8D8E110CC00FB64D
:1004300007FCFACFE889F989808185FFF5CFCE01E5
:100440000E94C301F1CFEB8DEC0FFD2FF11DE35A9C
:10045000FF4FF0829FB7F8940B8FEA89FB89808168
:100460008062CFCFCF93DF93EC01888D8823B9F0E2
:10047000AA89BB89E889F9898C9185FD03C08081AF
:1004800086FD0DC00FB607FCF7CF8C9185FFF2CF2C
:10049000808185FFEDCFCE010E94C301E9CFDF91BE
:1004A000CF910895FC0101900020E9F73197AF0149
:1004B000481B590BBC018BE491E00C9445011F9241
:1004C0000F920FB60F9211242F933F938F939F9308
:1004D000AF93BF938091430190914401A091450156
:1004E000B09146013091420123E0230F2D3758F59A
:1004F0000196A11DB11D2093420180934301909369
:100500004401A0934501B093460180914701909129
:100510004801A0914901B0914A010196A11DB11D68
:100520008093470190934801A0934901B0934A01F9
:10053000BF91AF919F918F913F912F910F900FBEDF
:100540000F901F90189526E8230F0296A11DB11D4C
:10055000D2CF1F920F920FB60F9211242F933F9379
:100560004F935F936F937F938F939F93AF93BF93BB
:10057000EF93FF938BE491E00E94C301FF91EF9111
:10058000BF91AF919F918F917F916F915F914F91AB
:100590003F912F910F900FBE0F901F9018951F92B3
:1005A0000F920FB60F9211242F938F939F93EF9377
:1005B000FF93E0915B01F0915C018081E09161012A
:1005C000F091620182FD1BC09081809164018F5F78
:1005D0008F7320916501821741F0E0916401F0E092
:1005E000E55BFE4F958F80936401FF91EF919F91A2
:1005F0008F912F910F900FBE0F901F9018958081B3
:10060000F4CFEBE4F1E01382128288EE93E0A0E0F5
:10061000B0E084839583A683B78384E091E09183DF
:10062000808385EC90E09587848784EC90E09787C1
:10063000868780EC90E0918B808B81EC90E0938BAF
:10064000828B82EC90E0958B848B86EC90E0978B8C
:10065000868B118E128E138E148E0E943901609338
:10066000E8017093E9018093EA019093EB0108950A
:10067000CF93DF93CDB7DEB7A1970FB6F894DEBF67
:100680000FBECDBF789484B5826084BD84B581608F
:1006900084BD85B5826085BD85B5816085BD80914D
:1006A0006E00816080936E001092810080918100C5
:1006B00082608093810080918100816080938100BD
:1006C000809180008160809380008091B10084607F
:1006D0008093B1008091B00081608093B0008091E0
:1006E0007A00846080937A0080917A00826080939F
:1006F0007A0080917A00816080937A0080917A00FC
:10070000806880937A001092C100E0915B01F091C3
:100710005C0182E08083E0915701F09158011082E2
:10072000E0915901F0915A018FEC8083109263019E
:10073000E0915F01F091600186E08083E0915D01CE
:10074000F0915E01808180618083E0915D01F09194
:100750005E01808188608083E0915D01F0915E019F
:10076000808180688083E0915D01F0915E018081ED
:100770008F7D808361E08DE00E94E30061E08BE08B
:100780000E94E30060E08EE00E94E300E8EBF0E00E
:100790008491E4EAF0E0E491E0E9F0E014911123BF
:1007A00061F081110E948C00E12FF0E0EE0FFF1F3D
:1007B000E859FF4FA591B4918C9160E08DE00E94C3
:1007C000B50061E08BE00E94E30060E08BE00E94F6
:1007D000B500C0904001D09041010D2C000CEE08F6
:1007E000FF08F7FE05C16DE28BE491E00E94E50190
:1007F00022273327A9012C193D094E095F0919A2A7
:10080000CE0181967C017AE0872E912CA12CB12C0F
:10081000CA01B901A50194010E945A05605DF70162
:1008200062937F01211531054105510589F7E114D6
:10083000F10419F0C7010E9452020E9414014B01F9
:100840005C0144EFC42EDD24D394E12CF12C0E94F2
:100850001401681979098A099B09683E734081056A
:100860009105A8F3F1E0CF1AD108E108F10828EECC
:10087000820E23E0921EA11CB11CC114D104E1041C
:10088000F10429F799EBC92E90E0D92E2CE8E22E3D
:10089000F12C1CE83CEAA32E3DE0B32E00E480E0FE
:1008A000882E80E0982E0E94390140903A015090A5
:1008B0003B0160903C0170903D0164197509860907
:1008C00097096A3F710581059105D8F00E943901A9
:1008D00060933A0170933B0180933C0190933D01FA
:1008E00061E08091380190913901892B09F060E035
:1008F000862F90E090933901809338018DE00E941B
:10090000B50000937C0080917A00806480937A0027
:1009100080917A0086FDFCCF8091780090917900DB
:1009200088359240ACF180913E0190913F011816BC
:10093000190674F18091400190914101892B41F594
:100940000E9439014090E8015090E9016090EA016D
:100950007090EB01641975098609970960327F4B25
:1009600082409105A8F082E191E00E94520283E268
:1009700091E00E945202B0924101A0924001809108
:100980003E0190913F01019690933F0180933E017B
:100990008BE491E00E94A30180914001909141017C
:1009A000892B41F461E08BE00E94E30060E08BE082
:1009B0000E94B5000E9439016093E8017093E9013B
:1009C0008093EA019093EB0161E08BE00E94E300E9
:1009D000F6018491833009F453C028F5813099F1F0
:1009E000823009F448C061E08BE00E94B5002FC05E
:1009F000A701960119A2CE0181967C016AE0862E9C
:100A0000912CA12CB12CCA01B901A50194010E941D
:100A10005A05605DF70162937F012115310541059B
:100A2000510589F704CF8730A9F18830D9F1843096
:100A3000D1F680918000806280938000F0928B00DC
:100A4000E0928A0004C084B5806884BD17BD86E248
:100A500091E00E94520283E291E00E9452028114CE
:100A6000910409F420CF0E94AF01882309F41BCF21
:100A70000E94000013CF84B5806284BD18BDE7CF0B
:100A800080918000806880938000F0928900E092DD
:100A90008800DDCF8091B00080688093B000109313
:100AA000B300D5CF8091B00080628093B0001093E6
:100AB000B400CDCFA1E21A2EAA1BBB1BFD010DC0B5
:100AC000AA1FBB1FEE1FFF1FA217B307E407F507FE
:100AD00020F0A21BB30BE40BF50B661F771F881FDA
:100AE000991F1A9469F760957095809590959B0170
:100AF000AC01BD01CF010895EE0FFF1F0590F491E9
:080B0000E02D0994F894FFCFE9
:100B080000000000E501450172013202A3018101E4
:100B18009501656E74726F20656E206D6F746F72CB
:100B28002031000D0A00656E74726F20656E206DAD
:080B38006F746F72203300009E
:00000001FF
