:020000040000FA
:100000000C9462000C948A000C948A000C948A0070
:100010000C948A000C948A000C948A000C948A0038
:100020000C948A000C948A000C948A000C948A0028
:100030000C948A000C948A000C948A000C948A0018
:100040000C94B7020C948A000C9485020C945F0205
:100050000C948A000C948A000C948A000C948A00F8
:100060000C948A000C948A000000000024002700F1
:100070002A0000000000250028002B0000000000DE
:1000800023002600290004040404040404040202DA
:100090000202020203030303030301020408102007
:1000A0004080010204081020010204081020000012
:1000B0000008000201000003040700000000000027
:1000C0000000430511241FBECFEFD8E0DEBFCDBF37
:1000D00011E0A0E0B1E0E4E3FBE002C005900D9286
:1000E000A632B107D9F721E0A6E2B1E001C01D9226
:1000F000AC3DB207E1F710E0C2E6D0E004C02197C2
:10010000FE010E949205C136D107C9F70E94010382
:100110000C9498050C940000AF92BF92CF92DF929E
:10012000EF92FF920F931F93CF93DF936C017B01AC
:100130008B01040F151FEB015E01AE18BF08C0173D
:10014000D10759F06991D601ED91FC910190F081B0
:10015000E02DC6010995892B79F7C501DF91CF9173
:100160001F910F91FF90EF90DF90CF90BF90AF90D5
:100170000895FC01538D448D252F30E0842F90E0AD
:10018000821B930B541710F0CF9608950197089592
:10019000FC01918D828D981761F0A28DAE0FBF2F5B
:1001A000B11D5D968C91928D9F5F9F73928F90E0B1
:1001B00008958FEF9FEF0895FC01918D828D981720
:1001C00031F0828DE80FF11D858D90E008958FEF5D
:1001D0009FEF0895FC01918D228D892F90E0805C26
:1001E0009F4F821B91098F73992708958FE391E0A8
:1001F0000E94EA0021E0892B09F420E0822F089573
:1002000080E090E0892B29F00E94F60081110C9487
:1002100000000895FC01A48DA80FB92FB11DA35AA9
:10022000BF4F2C91848D90E001968F739927848F16
:10023000A689B7892C93A089B1898C918370806439
:100240008C93938D848D981306C00288F389E02DDA
:1002500080818F7D80830895EF92FF920F931F938B
:10026000CF93DF93EC0181E0888F9B8D8C8D981369
:100270001AC0E889F989808185FF15C09FB7F89475
:10028000EE89FF896083E889F989808183708064C1
:1002900080839FBF81E090E0DF91CF911F910F910C
:1002A000FF90EF900895F62E0B8D10E00F5F1F4F1B
:1002B0000F731127E02E8C8D8E110CC00FB607FC2A
:1002C000FACFE889F989808185FFF5CFCE010E94B8
:1002D0000A01F1CFEB8DEC0FFD2FF11DE35AFF4F1B
:1002E000F0829FB7F8940B8FEA89FB898081806246
:1002F000CFCFCF93DF93EC01888D8823B9F0AA8903
:10030000BB89E889F9898C9185FD03C0808186FDD0
:100310000DC00FB607FCF7CF8C9185FFF2CF80811F
:1003200085FFEDCFCE010E940A01E9CFDF91CF9189
:100330000895833081F028F4813099F08230A9F05B
:1003400008958730A9F08830C9F08430B1F48091E5
:1003500080008F7D03C0809180008F778093800024
:10036000089584B58F7784BD089584B58F7DFBCFC4
:100370008091B0008F778093B00008958091B00095
:100380008F7DF9CF1F93CF93DF93282F30E0F901B2
:10039000E255FF4F8491F901E656FF4FD491F901E0
:1003A000EA57FF4FC491CC23A9F0162F81110E9468
:1003B0009901EC2FF0E0EE0FFF1FEE58FF4FA591D3
:1003C000B4918FB7F894EC91111108C0D095DE2349
:1003D000DC938FBFDF91CF911F910895DE2BF8CF73
:1003E000CF93DF9390E0FC01E656FF4F24918A57AC
:1003F0009F4FFC0184918823D1F090E0880F991FD2
:10040000FC01E859FF4FA591B491FC01EE58FF4F54
:10041000C591D49161110EC09FB7F8948C91E22FD1
:10042000E0958E238C932881E223E8839FBFDF91A0
:10043000CF9108958FB7F894EC91E22BEC938FBF96
:10044000F6CF3FB7F89480912B0190912C01A091A9
:100450002D01B0912E0126B5A89B05C02F3F19F0A4
:100460000196A11DB11D3FBFBA2FA92F982F882734
:10047000BC01CD01620F711D811D911D42E0660F0F
:10048000771F881F991F4A95D1F708952FB7F894C1
:1004900060912701709128018091290190912A0192
:1004A0002FBF0895FC0101900020E9F73197AF01BB
:1004B000481B590BBC018FE391E00C948C001F92F8
:1004C0000F920FB60F9211242F933F934F935F9388
:1004D0006F937F938F939F93AF93BF93EF93FF930C
:1004E0008FE391E00E940A01FF91EF91BF91AF91DC
:1004F0009F918F917F916F915F914F913F912F913C
:100500000F900FBE0F901F9018951F920F920FB66D
:100510000F9211242F938F939F93EF93FF93E0916A
:100520004F01F09150018081E0915501F091560109
:1005300082FD1BC09081809158018F5F8F73209145
:100540005901821741F0E0915801F0E0E15CFE4F63
:10055000958F80935801FF91EF919F918F912F91EB
:100560000F900FBE0F901F9018958081F4CF1F92AF
:100570000F920FB60F9211242F933F938F939F9357
:10058000AF93BF938091270190912801A0912901F9
:10059000B0912A013091260123E0230F2D3758F521
:1005A0000196A11DB11D20932601809327019093F0
:1005B0002801A0932901B0932A0180912B019091E9
:1005C0002C01A0912D01B0912E010196A11DB11D0C
:1005D00080932B0190932C01A0932D01B0932E01B9
:1005E000BF91AF919F918F913F912F910F900FBE2F
:1005F0000F901F90189526E8230F0296A11DB11D9C
:10060000D2CFCF93DF93CDB7DEB7A1970FB6F894D3
:10061000DEBF0FBECDBF789484B5826084BD84B543
:10062000816084BD85B5826085BD85B5816085BDED
:1006300080916E00816080936E00109281008091A5
:10064000810082608093810080918100816080932D
:100650008100809180008160809380008091B10052
:1006600084608093B1008091B00081608093B0007D
:1006700080917A00846080937A0080917A00826011
:1006800080937A0080917A00816080937A008091D3
:100690007A00806880937A001092C100E0914F0147
:1006A000F091500182E08083E0914B01F0914C0188
:1006B0001082E0914D01F0914E018FEC80831092F9
:1006C0005701E0915301F091540186E08083E0915D
:1006D0005101F0915201808180618083E09151014C
:1006E000F0915201808188608083E0915101F09106
:1006F0005201808180688083E0915101F091520124
:1007000080818F7D808361E08DE00E94F00161E057
:100710008BE00E94F00160E08EE00E94F001E8EBC7
:10072000F0E08491E4EAF0E0E491E0E9F0E0149193
:10073000112361F081110E949901E12FF0E0EE0F89
:10074000FF1FE458FF4FA591B4918C9160E08DE0BC
:100750000E94C20161E08BE00E94F00160E08BE04A
:100760000E94C201C0903D01D0903E010D2C000CB2
:10077000EE08FF08F7FE18C16DE28FE391E00E94DA
:100780002C0122273327A9012C193D094E095F09A5
:1007900019A2CE0181967C017AE0872E912CA12CA2
:1007A000B12CCA01B901A50194010E947005605DD8
:1007B000F70162937F01211531054105510589F744
:1007C000E114F10419F0C7010E9452020E942102B3
:1007D0004B015C0154EFC52EDD24D394E12CF12CA8
:1007E0000E942102681979098A099B09683E7340B1
:1007F00081059105A8F3F1E0CF1AD108E108F108CD
:1008000028EE820E23E0921EA11CB11CC114D1045B
:10081000E104F10429F799EBC92E90E0D92E0CE8F8
:1008200010E02CE8722E30E0E32E30E0F32E4CEA9C
:10083000A42E4DE0B42E80E4682E0E944602209142
:100840003101309132014091330150913401621BEA
:10085000730B840B950B6A3F710581059105D8F0E8
:100860000E944602609331017093320180933301FC
:100870009093340161E080912F0190913001892B98
:1008800009F060E0862F90E09093300180932F0173
:100890008DE00E94C20160927C0080917A008064A9
:1008A00080937A0080917A0086FDFCCF9091780049
:1008B00080917900892798278927883592404CF1C3
:1008C00080913501909136011816190614F1809126
:1008D0003D0190913E01892BE1F40E944602603275
:1008E0007F4B82409105A8F082E191E00E94520284
:1008F00083E291E00E945202B0923E01A0923D013B
:100900008091350190913601019690933601809344
:1009100035018FE391E00E94EA0080903D019090C4
:100920003E018114910409F483C00E944602209183
:10093000390130913A0140913B0150913C016217DD
:1009400073078407950709F473C00E9446026093F9
:10095000390170933A0180933B0190933C0181E00F
:10096000881A910890923E0180923D01892809F4ED
:100970004CC08091370190913801892B09F045C016
:1009800061E08BE00E94F001F6018491833009F46C
:1009900060C028F58130A9F1823009F455C061E0CA
:1009A0008BE00E94C20131C0A701960119A2CE01BD
:1009B00081967C016AE0862E912CA12CB12CCA0173
:1009C000B901A50194010E947005605DF701629371
:1009D0007F01211531054105510589F7F1CE873099
:1009E00009F441C0883009F446C08430C1F68091D2
:1009F000800080628093800010938B0000938A00B7
:100A000004C084B5806884BD77BC80903D0190901F
:100A10003E018114910441F461E08BE00E94F001F9
:100A200060E08BE00E94C201909238018092370111
:100A3000E114F10409F401CF0E94F600882309F4BF
:100A4000FACE0E940000F7CE84B5806284BD78BCE7
:100A5000DCCF8091800080688093800010938900B3
:100A600000938800D2CF8091B00080688093B0005E
:100A70007092B300CACF8091B00080628093B000C2
:100A80007092B400C2CFEFE3F1E01382128288EEDD
:100A900093E0A0E0B0E084839583A683B78384E0ED
:100AA00091E09183808385EC90E09587848784EC46
:100AB00090E09787868780EC90E0918B808B81EC2B
:100AC00090E0938B828B82EC90E0958B848B86EC0C
:100AD00090E0978B868B118E128E138E148E089554
:100AE000A1E21A2EAA1BBB1BFD010DC0AA1FBB1F32
:100AF000EE1FFF1FA217B307E407F50720F0A21BA4
:100B0000B30BE40BF50B661F771F881F991F1A9410
:100B100069F760957095809590959B01AC01BD013A
:100B2000CF010895EE0FFF1F0590F491E02D099479
:100B3000F894FFCF000000002C018C00B90079016F
:100B4000EA00C800DC00656E74726F20656E206D6F
:0A0B50006F746F722031000D0A006F
:107E0000112484B714BE81FFF0D085E080938100F7
:107E100082E08093C00088E18093C10086E0809377
:107E2000C20080E18093C4008EE0C9D0259A86E02C
:107E300020E33CEF91E0309385002093840096BBD3
:107E4000B09BFECF1D9AA8958150A9F7CC24DD24C4
:107E500088248394B5E0AB2EA1E19A2EF3E0BF2EE7
:107E6000A2D0813461F49FD0082FAFD0023811F036
:107E7000013811F484E001C083E08DD089C08234E0
:107E800011F484E103C0853419F485E0A6D080C0E4
:107E9000853579F488D0E82EFF2485D0082F10E0AE
:107EA000102F00270E291F29000F111F8ED06801E7
:107EB0006FC0863521F484E090D080E0DECF843638
:107EC00009F040C070D06FD0082F6DD080E0C81688
:107ED00080E7D80618F4F601B7BEE895C0E0D1E017
:107EE00062D089930C17E1F7F0E0CF16F0E7DF06D8
:107EF00018F0F601B7BEE89568D007B600FCFDCFD4
:107F0000A601A0E0B1E02C9130E011968C91119780
:107F100090E0982F8827822B932B1296FA010C0160
:107F200087BEE89511244E5F5F4FF1E0A038BF0790
:107F300051F7F601A7BEE89507B600FCFDCF97BE46
:107F4000E89526C08437B1F42ED02DD0F82E2BD052
:107F50003CD0F601EF2C8F010F5F1F4F84911BD097
:107F6000EA94F801C1F70894C11CD11CFA94CF0C13
:107F7000D11C0EC0853739F428D08EE10CD085E9AC
:107F80000AD08FE07ACF813511F488E018D01DD067
:107F900080E101D065CF982F8091C00085FFFCCF94
:107FA0009093C60008958091C00087FFFCCF809118
:107FB000C00084FD01C0A8958091C6000895E0E648
:107FC000F0E098E1908380830895EDDF803219F02E
:107FD00088E0F5DFFFCF84E1DECF1F93182FE3DFCA
:107FE0001150E9F7F2DF1F91089580E0E8DFEE27F6
:047FF000FF270994CA
:027FFE00040479
:00000001FF
